:1000000054C0000085C0000083C0000081C0000013
:100010007FC000007DC000007BC0000079C00000F0
:100020004FC7000075C0000073C0000071C0000021
:100030006FC000006DC000006BC0000069C0000010
:1000400067C0000065C0000063C0000061C0000020
:100050005FC0000091C6000089C6000093C6000082
:100060002CC7000055C0000053C0000051C0000064
:100070004FC000004DC0000001C7000049C0000093
:1000800047C0000045C0000015C7000041C0000087
:100090000001020304050000020104060202FF033E
:1000A000101204090B050007AE0711241FBECFEF85
:1000B000CDBFDFE7DEBF809140008093400081111B
:1000C00005C098ED21E094BF209341008CBB21E650
:1000D000A0EBB0E601C01D92AB3BB207E1F710E622
:1000E000A0E0B0E6E2E1F6E102C005900D92A03B8F
:1000F000B107D9F710E0C5E5D0E004C02197FE01B3
:100100000E94F20AC435D107C9F7BDD70C94070B7A
:1001100077CF0000809344098091430987FFFCCF8B
:10012000809144090895282F30E0F901E758FF49EC
:1001300090819F3F61F1235A3F49D901EC91F0E052
:10014000DF01AA0FBB1FA95FBF492D913C9121156B
:100150003105E9F0492F50E0440F551F240F351F9A
:1001600048E056E0D9014D935C934FB7F8949F0156
:1001700055E0220F331F5A95E1F7E0E1E90FE20F56
:10018000F0E0FC5F8081887F836080834FBF0895AB
:10019000AF92BF92CF92DF92EF92FF920F931F9395
:1001A000CF93DF936C017B018B01040F151FEB01D3
:1001B0005E01AE18BF08C017D10759F06991D6018A
:1001C000ED91FC910190F081E02DC6010995892BFC
:1001D00079F7C501DF91CF911F910F91FF90EF90BB
:1001E000DF90CF90BF90AF900895FC015189428974
:1001F000252F30E0842F90E0821B930B541710F0D2
:10020000CF96089501970895FC01978580899817E6
:1002100061F0A089AE0FBF2FB11D53968C919089CC
:100220009F5F9F73908B90E008958FEF9FEF0895ED
:10023000FC0197858089981731F08089E80FF11DBE
:10024000838990E008958FEF9FEF0895FC019785D3
:100250002089892F90E0805C9F4F821B91098F73CA
:1002600099270895FC010FB607FE04C08091110183
:100270008823A1F0A085B18514968C91149785FFF1
:100280000DC091898289981307C015968C91159796
:100290008F7D15968C930895E89481C508950F93EA
:1002A0001F93CF93DF93EC018E8581608E879989B0
:1002B0008A8998130BC0E885F985848185FF06C07B
:1002C0008E8581FD0DC080E4848312C0062F1989BC
:1002D0001F5F1F738A89811315C0CE01C3DFFACF58
:1002E00085818F77806490E49483E885F9858583A0
:1002F000E885F985628381E090E0DF91CF911F91DD
:100300000F910895E989EC0FFD2FF11DED5AFF4F74
:100310000083198B8E85E885F98581FF09C0858169
:100320008F77806690E49483E885F9858583E3CFB1
:1003300085818062FBCFCF93DF93EC018E8588238C
:1003400059F0E885F985858185FD03C0848186FDA6
:1003500003C0CE0187DFF5CFDF91CF91089501C0B3
:100360000895FEDF8230910550F09C01220F331F6B
:100370000397820F931F019700C000C0E1F7089513
:100380009FB7F894E0912A0BF0912B0B8091260BEC
:100390002091F7603091F8604091F9605091FA60D7
:1003A0009FBF80FF08C0CF018827892B21F42F5FD2
:1003B0003F4F4F4F5F4F0F011694079416940794C9
:1003C0001694079416940794F00116940794E00D80
:1003D000F11D16940794102C169401181694010C14
:1003E000169401181694010C16940118169416947C
:1003F000010C1124E019F109A8EEB3E00E94E80A0B
:100400006E0F7F1F811D911D0895CF92DF92EF9295
:10041000FF92CF93DF936B017C01B2DFEB01B0DF82
:100420006C1B7D0B683E7340D0F381E0C81AD10885
:10043000E108F108C851DC4FC114D104E104F10412
:1004400071F7DF91CF91FF90EF90DF90CF900895FB
:10045000FC0101900020E9F73197AF01481B590BCF
:10046000BC018BEF90E694CE8F929F92AF92BF9299
:100470000F931F93CF93DF93CDB7DEB7A197CDBF77
:10048000DEBF19A2423008F44AE08E010F5D1F4F13
:10049000842E912CB12CA12CA50194010E94AA0AB2
:1004A000E62FB901CA01EA30D4F4E05DD801EE9339
:1004B0008D01232B242B252B79F790E080E01097DA
:1004C00011F0CD01C5DFA196CDBFDEBFDF91CF9189
:1004D0001F910F91BF90AF909F908F900895E95C0E
:1004E000E5CFCF93DF93B4DFEC0187EA90E6B0DF8E
:1004F0008C0F9D1FDF91CF910895282F30E08C3114
:10050000A8F4F901EF5CFF4980818F3F79F0235A0D
:100510003F49D901EC91B0E2EB9FF0011124FC5F5F
:100520009085982381E019F480E008958FEF089575
:100530000F931F93CF93DF938C3108F0B2C090E0FC
:10054000DC01AF5CBF492C912F3F09F4AAC08C019C
:10055000035A1F49E801E881D0E2ED9FF001112420
:10056000FC5F611132C0268330812323AC014758E0
:100570005F49211111C0EA012881309779F12830B3
:1005800068F57096E20FF11D3FB7F8942081611174
:1005900028C0277F20833FBFFA0130813F3F09F405
:1005A00080C0E80128813630F0F43091E7053770DB
:1005B000231319C0EC91E53008F0EE0F8091010A89
:1005C000E095E823E093010A6CC0643029F434819B
:1005D000278364816223C8CF2583C6CFF0E0E0E0A3
:1005E000D3CF2860D7CF8B5E9F49FC01808186FFE7
:1005F00042C09091E9059770482F50E04F7B9417C7
:100600001506C9F5EC918091920B9E2FE03110F404
:100610009295907F892309F444C0C0E22C9F9001F9
:1006200011243C5FE83008F052C0205F3F4FE20FDA
:10063000F32FF11D4FB7F8949091800B9E7F90930C
:10064000800B90918E0B90FFFCCF2091920B90E04D
:100650008095909530E08223932328ED24BF8093EA
:10066000920B8091800B81608093800B80818F77CB
:1006700080834FBF16C085FF12C030E1839FF00119
:100680001124F75F91819770973059F4EC9185327E
:1006900068F4803298F4803109F48DCF02C0811162
:1006A000F5CFDF91CF911F910F910895803409F418
:1006B000AACF8038B1F71092A006F3CF90E1899FBE
:1006C000F0011124F75F81818F7E8183EACFF0E012
:1006D000E0E0B0CFCF93DF93CBE9D1E6682F8C81F8
:1006E00027DF8C8D9D8DDF91CF9139CE81E0F2DFB8
:1006F000E0919B61F0919C618285882331F01286A4
:100700008085882311F081858FBF08950F931F93F3
:10071000E0919B61F0919C610091A1611091A261B7
:100720002091A3613091A46140E05BE167EB70E050
:1007300080E0041715072607370740F4769567957C
:10074000579547958F5F8630A1F787E091E089271D
:1007500090E1899F90011124207186708162822B23
:100760009085992319F09FB79187F89491E092872B
:100770008093400984E08093410980E01F910F91AC
:10078000A9CFCF93C82FC2DF8C2F8062C2DC8093A9
:10079000A561CF91ABCFCF93DF93D82FC62FB6DF14
:1007A0008D2F8062B6DC8093A5618C2FB2DCDF9147
:1007B000CF919CCFCF938093A661C1E16091A66158
:1007C0008C2FE9DFCF5FC731C9F7CF9108956091D2
:1007D000AC6161FD0BC062606093AC6180E0DBDF07
:1007E0008FE295E70197F1F700C000000895CF93DD
:1007F000C82F8CDF8C2F8DDC8093A5618FEF89DC77
:10080000C82F74DF8C2FCF910895CF93C82F86E027
:10081000EEDF887F6C2F660F6F5F682B86E0CF91CD
:10082000BACFFF920F931F93CF93DF93C82FF62E6B
:10083000072F142F6BDF8C2F80626BDC8093A561F8
:10084000CF2DD02F115018F0899163DCFBCFDF91B1
:10085000CF911F910F91FF9049CF0F931F93CF938B
:10086000DF93EC010BE911E6F8014589BC018AE050
:10087000D8DFF8014589BE0180E1DF91CF911F915A
:100880000F91CFCF43DF80E544DC8093A56183E700
:1008900040DC2CCF20919D6130919E6140919F6101
:1008A0005091A0612417350719F0682F822F40CE90
:1008B0000895CF92DF92EF92FF920F931F93CF9301
:1008C000DF937C018091B161C0E0D8E0811107C065
:1008D000C091A661DC2FC93008F0D8E0CD1B16DF2F
:1008E00080EA17DC8093A5618701D15028F0F801D8
:1008F00081918F010EDCF9CFC15018F080E009DC46
:10090000FBCFF4DE81E0C6DF8FB7F894C090F760CC
:10091000D090F860E090F960F090FA608FBF8FEFB0
:1009200030DF8091A561807309F52FB7F89480912D
:10093000F7609091F860A091F960B091FA602FBFD4
:100940008C199D09AE09BF0980369105A105B10535
:1009500030F381E08093B26180E0DF91CF911F910D
:100960000F91FF90EF90DF90CF90089580E092DF9D
:1009700060E787E010DF8091A56184FF03C081EE0E
:1009800000DFEACF81E0E9CF80E084DF8091B361CE
:100990009091B461E4DC8091AF61882311F081EE25
:1009A000F0DE6091AC616E7F6093AC6180E0F3DE5D
:1009B00082E01DDFE0E9F0E0E49161E070E001C079
:1009C000660FEA95EAF7682B82E0E5CE00DF6091DA
:1009D000AC6161606093AC6180E0DDDE60E787E080
:1009E000DADE81E057DF8091AE61882331F04091FB
:1009F000B06167EA71E68AE014CF82E0F8DEE0E9F0
:100A0000F0E0E49121E030E001C0220FEA95EAF73E
:100A10002095622F682382E0BEDE1092AE610895B9
:100A2000CF93DF93E0919B61F0919C61878181116D
:100A300006C01086128680E8818781E087838091D6
:100A4000E505887F9681892B8093E50584818C312B
:100A500090F490E0DC01AF5CBF492C912F3F59F03E
:100A6000835A9F49EC01A881D0E2AD9FD0011124A7
:100A7000BC5F11962C9383818C3188F490E0FC014B
:100A8000EF5CFF4920812F3F51F0835A9F49DC01E1
:100A9000EC91B0E2EB9FF0011124FC5F2183909177
:100AA0008E6180918F61909340098093410980917C
:100AB0009D6190919E618F3F980721F480E0DF91C6
:100AC000CF91089520919F613091A0612F3F32070F
:100AD000A9F38217930751F18C3188F49927FC010F
:100AE000EF5CFF4920812F3F51F0835A9F49DC0181
:100AF000EC91B0E2EB9FF0011124FC5F2183809127
:100B00009F619091A0618C3188F49927FC01EF5C82
:100B1000FF4920812F3F51F0835A9F49EC01E88122
:100B2000D0E2ED9FF0011124FC5F218380E0B2DE72
:100B300081E0D0DD65E070E080E090E066DC6FE5AC
:100B400084E029DE86E053DE48E151E060E070E0B9
:100B50004093B3615093B4616093B5617093B66193
:100B6000682F677D86E017DE86E041DE8DE13FDE9F
:100B7000C82F88DE8DE13BDE91E0C81390E09093B2
:100B8000AD61882331F0C81301C07CDE60E08DE1E7
:100B900002DE1092AF6160E08CE1FDDD1092B16188
:100BA0006FE381E0F8DD63E082E0F5DD80E202DE04
:100BB00063E083E0F0DD85E08093B0616CE4EBDD21
:100BC00060E787E0E8DD82EEDCDD81EEDADD6CE017
:100BD00080E0E1DD80E00BDE8093AC61F8DD8091A8
:100BE000AC618E3009F06ACF88E0E4DD82E00DDE92
:100BF000CBDE81E090E631DE81E061CF61E082E032
:100C000097DCE0E0F6E080818E7F80838895089510
:100C1000BF92CF92DF92EF92FF920F931F93CF93E9
:100C2000DF938091F06081116AC060E082E080DC37
:100C30008091000681608093000665E070E080E0AE
:100C400090E0E3DBEDDE8091F660811158C081E138
:100C500054DC882309F450C061E088E069DC61E07D
:100C600089E066DC61E08AE063DC61E08BE060DC07
:100C70009DE4E92E90E6F92ED0E0C0E0F701008176
:100C8000F2E0EF0EF11C60E0802F52DC61E070E0DA
:100C900080E090E0BADB85E5C82E80E6D82E1C2FD8
:100CA000BC2E80E1B80EF6018081F2E0CF0ED11C9F
:100CB00024DC811104C081E0810F8093F6601C5F09
:100CC0001B11F1CF2196C430D10591F460E088E08A
:100CD0002FDC60E089E02CDC60E08AE0DF91CF91DE
:100CE0001F910F91FF90EF90DF90CF90BF9020CC9D
:100CF00061E0802F1DDCC2CF81E18093F660DF913F
:100D0000CF911F910F91FF90EF90DF90CF90BF9008
:100D1000089586E08093080681E080930A0680911A
:100D20000D0680FFFCCF2091100630911106233A6A
:100D300082E03807C8F050E040E0235A32404109D1
:100D40005109A7E0B0E044D424E630E040E050E0B0
:100D500023D4283028F42093006080910060089507
:100D600087E080930060F9CF88E00895EF93FF93C8
:100D7000F898EBEFF0E60BC0EF93FF93F898EBEFEA
:100D8000F0E633C0EF93FF93EBEFF0E65EC02F93F6
:100D90002FB72F938F939F93AF93BF936894CF9365
:100DA000DF9320E0C085D8E09289DF01A90FB21F50
:100DB000AD5ABF4F8C9120E42C838A839F5F9F7331
:100DC0008D812189291302C08F7D8D83928BDF91C4
:100DD000CF910EF063CABF91AF919F918F912F91E8
:100DE0002FBF2F91FF91EF9118952F932FB72F932E
:100DF0003F938F939F93CF93DF93C085D8E02E814D
:100E00002F7E2E83898198818674880F3685382BB2
:100E100082FD0DC0C78581E08C0F8F732089281754
:100E200091F0CE0FDF2F20E0D21F9B8B8787368774
:100E3000DF91CF919F918F913F912F912FBF2F9154
:100E4000FF91EF9118953064F2CF8F938FB78F9306
:100E50009F93CF93DF93C085D8E09D8188818C815B
:100E600087FDFCCF9F7B90689D83DF91CF919F9101
:100E70008F918FBF8F91FF91EF911895EF93FF9313
:100E8000E7EFF0E68F938FB78F9380818F5F80833A
:100E900081818F4F818382818F4F828383818F4FA6
:100EA000838381E08093260B8F918FBF8F91FF9179
:100EB000EF9118950F930AE006C00F9306E003C068
:100EC0000F9300E000C00F920FB60F920BB60F9277
:100ED0001F921124FF921F932F933F934F935F9381
:100EE0006F937F938F939F93AF93BF93CF93DF9332
:100EF000EF93FF93A7E0B0E6A00FB11DCD91DC9179
:100F0000000F0D5FA02FB0E0FC90109761F01F2D37
:100F1000169518F041F02296FBCFE991F9913097A0
:100F2000B9F30995F5CFA02FB0E0FC92FF91EF91B6
:100F3000DF91CF91BF91AF919F918F917F916F91F1
:100F40005F914F913F912F911F91FF901F900F90B4
:100F50000BBE0F900FBE0F900F9118951092FD6071
:100F60001092FE6088EE93E0A0E0B0E08093FF6016
:100F700090930061A0930161B093026189E990E6CA
:100F80008093FB609093FC6080E098E08093036125
:100F90009093046186E990E08093056190930661E7
:100FA00085E080930761109208611092096140E02A
:100FB0005BE167EB70E080E08F5F863011F487E0E3
:100FC0000BC07695679557954795413099E059073D
:100FD0009DE36907710580F791E0892744E040931C
:100FE0008F6150E1859F900111242071867081628C
:100FF000822B80938E6120E439E0209390613093BE
:1010000091614093936186E0809394611092966120
:101010001092976123E030E020939D6130939E61B0
:1010200027E030E020939F613093A06140E856E9CB
:1010300068E970E04093A1615093A2616093A3615D
:101040007093A46180E28093A6611092AD611092CA
:10105000AE6185E08093B0619093B16185E090E0EE
:10106000A0E0B0E08093B7619093B861A093B961BC
:10107000B093BA6180E991E680939B6190939C6103
:101080001092A7610895CF93DF93CDB7DEB76E9727
:10109000CDBFDEBF88ED94E284BF9093680031E05D
:1010A0003093030A9EEF9093260A9093270A8BE0D1
:1010B0008093000A23E02093E7052093E80547E0AA
:1010C0004093010B90930C0B10920D0B85E08093D5
:1010D000000B4093110B90931C0B10921D0B8093EF
:1010E000100B4FEF5FE04093AA0B5093AB0B90E8CF
:1010F0009093820B1092810B4BEF53E04093AE0B19
:101100005093AF0B91E79093800B92E09093E90599
:10111000809302069EE09093050690E69093030666
:10112000809300068091B000887F85608093B00036
:101130008091B200887F85608093B2008FED9EE23F
:1011400080932C0B90932D0B3093250B1092210B39
:101150002093200B78948091B000887F8093B0001A
:1011600080910006837F8460809300063DE4C32E57
:1011700030E6D32E05E510E645E5E42E40E6F42EF4
:10118000D6018D919D916D019C0133278C3180F4A6
:10119000F901EF5CFF4940814F3F51F0235A3F492D
:1011A000D901EC91B0E2EB9FF0011124FC5F418387
:1011B00060E0BED9F801219131918F01C9019927D1
:1011C0002C3120F5FC01EF5CFF4920812F3FF1F02D
:1011D000FC01E35AFF49A081F0E2AF9FD001112446
:1011E000BC5F87589F49FC013081F0E0E0E0383077
:1011F00028F4CD014096FC01E30FF11D9FB7F89450
:1012000012962C938081877F80839FBFEC14FD040E
:1012100009F0B6CF9FB7F89410E210936204809162
:101220007504877F809375049FBF84E080930104D9
:1012300061E082E07DD988E08093A10460E087E1ED
:1012400077D980E18093A10460E088E171D910939F
:10125000A10461E089E16CD968EE73E080E090E080
:10126000D4D860E082E064D9DBDB8DE00E9493009B
:101270008EE00E9493008FE00E94930080E10E9424
:10128000930081E10E94930061E087E151D968EE0B
:1012900073E080E090E0B9D861E088E149D98091BD
:1012A0005000897F8460809350008091500081605D
:1012B00080935000A3DC08E07E01F1E1EF0EF11C09
:1012C00090EF992E27E0A22E20E6B22E9E012F5FEE
:1012D0003F4F69018091F660882309F439C160E0CD
:1012E00087E126D9D701E02F1D92EA95E9F7809191
:1012F000F660898B0EDD8A8B9091F5609F5F9093ED
:10130000F5609B8B883008F09AC0C701D2DA882339
:1013100031F061E087E10CD960E088E109D968EC3F
:1013200070E080E090E071D861E087E101D961E090
:1013300088E1FED81092F66081E1DFD8811108C102
:1013400080E1DBD8811104C168EE73E080E090E0B9
:101350005CD881E1D2D88111A7C080E1CED88111BB
:10136000A3C0D7DC883008F09FC091E09093F06074
:101370009986E1E0F0E6DE011A9691919D93AE1612
:10138000BF06D9F7888B86E0EAEAF0E6DE015996D7
:1013900001900D928A95E1F719DB88E00BDA81E084
:1013A00034DAF2DACE01499658DA14E160E089E1E4
:1013B000BFD8CE0109967DDA782E6AE070E080E031
:1013C00090E023D8772009F4A0C061E089E1B0D88B
:1013D00060E088E1ADD82FB7F8948091F7609091E4
:1013E000F860A091F960B091FA602FBF805F984DCE
:1013F000AF4FBF4F8093F1609093F260A093F36082
:10140000B093F460E3DA88E0D5D9BEDA81E090E603
:1014100024DA68EC70E080E090E00E940502D601DA
:10142000E02F1D92EA95E9F774DC8A8314E1C60186
:1014300040DA882309F161E089E17AD825C082E3A6
:10144000682E712C11E087E158D8682F612787E159
:101450006FD864E670E080E090E00E940502F1E061
:101460006F1A710881F768E873E180E090E00E94EC
:10147000050261E087E15DCF6AE070E080E090E026
:101480000E940502115099F660E088E051D860E0B2
:1014900089E04ED860E08AE04BD860E08BE048D825
:1014A00082E0B3D91092F0608091F1609091F26087
:1014B000A091F360B091F460892B8A2B8B2B09F4F7
:1014C00047C02FB7F8948091F7609091F860A09191
:1014D000F960B091FA602FBF4091F1605091F260D5
:1014E0006091F3607091F46084179507A607B707C1
:1014F000D8F21092F1601092F2601092F3601092A4
:10150000F46061E088E114D8CFCF64EF71E080E04F
:1015100090E00E94050261E089E10AD864EF71E081
:1015200080E090E00E940502115009F03FCF61E099
:1015300089E10E94980260E087E10E94980260EDD4
:1015400077E080E090E00E94050261E087E175CFDE
:1015500055DBC0CEA1E21A2EAA1BBB1BFD010DC09C
:10156000AA1FBB1FEE1FFF1FA217B307E407F50753
:1015700020F0A21BB30BE40BF50B661F771F881F2F
:10158000991F1A9469F760957095809590959B01C5
:10159000AC01BD01CF010895052E97FB16F4009410
:1015A0000FD057FD05D0D6DF07FC02D046F408C0A7
:1015B00050954095309521953F4F4F4F5F4F08957F
:1015C00090958095709561957F4F8F4F9F4F0895AF
:1015D0000FD0A59F900DB49F900DA49F800D911DDD
:1015E00011240895EE0FFF1F0590F491E02D09944A
:1015F000A29FB001B39FC001A39F700D811D112454
:10160000911DB29F700D811D1124911D0895F894B4
:02161000FFCF0A
:1016120005313032323300E0600000D060C060003B
:1016220000B0600000000020214040404022000045
:1016320000000000006474800042526272000000E8
:1016420000010204081020408001020408FF020485
:101652000810204080010204081020408008000980
:10166200000A000B000D000E000F00100000000029
:10167200000000000002020202030303030303034B
:101682000305050505050505050001020304050618
:101692000700010203FF010203040506070001021D
:1016A2000304050607000000004F01C800F5009B77
:1016B200012601040118010D0A0054435330300081
:00000001FF
